:100000000C9472000C9493000C9493000C94930045
:100010000C9493000C9493000C9493000C94930014
:100020000C9493000C9493000C9493000C94930004
:100030000C9493000C9493000C9493000C949300F4
:100040000C9493000C940A020C9493000C9493006B
:100050000C9493000C9493000C9493000C949300D4
:100060000C9493000C9493000C9493000C949300C4
:100070000C9493000C9493000C9493000C949300B4
:100080000C9493000C9493000C9493000C949300A4
:100090000C9493000C9493000C9493000C94930094
:1000A0000C9493000C9493000C9493000C94930084
:1000B0000C9493000C9493000C9493000C94930074
:1000C0000C9493000C9493000C9493000C94930064
:1000D0000C9493000C9493000C9493000C94930054
:1000E0000C94930011241FBECFEFD1E2DEBFCDBF31
:1000F00000E00CBF12E0A0E0B2E0EEE7F9E000E0C3
:100100000BBF02C007900D92A031B107D9F722E0D2
:10011000A0E1B2E001C01D92AF36B207E1F70E9444
:100120009B030C94BD040C9400001092C50087E65C
:100130008093C40088E18093C10086E08093C20070
:1001400008959091C00095FFFCCF8093C60008955C
:10015000CF93DF9360E177E20E944E04EC0180E3ED
:10016000860F0E94A100CE0168EE73E00E944E044B
:10017000EC0180E3860F0E94A100CE0164E670E0EE
:100180000E944E04EC0180E3860F0E94A100CE0184
:100190006AE070E00E944E04C82F80E3860F0E9440
:1001A000A10080E38C0FDF91CF910C94A100CF933D
:1001B000DF93EC018991811103C0DF91CF91089504
:1001C0000E94A100F7CF8AE00E94A1008DE00C946C
:1001D000A1009C01CB01621773070CF4C9010895BB
:1001E000E1E8F0E080818860808383EC99E090937F
:1001F000890080938800AFE6B0E08C9182608C9398
:1002000080818260808378940895CF93DF938150BA
:1002100023E1829FF0011124E05FFD4F6083418361
:100220001586148691E0968713861286C1E0D0E089
:100230009E0102C0220F331F6A95E2F701C0CC0F66
:100240004A95EAF7C22B843030F481B18C2B81B906
:10025000DF91CF91089582E092E00E94D70087B1AC
:100260008C2B87B9F5CF20E030E093E1929FF0012D
:10027000939FF00D1124E05FFD4F828363834483DD
:100280002F5F3F4F2530310589F797B121E030E0EE
:10029000F90102C0EE0FFF1F6A95E2F7BF01F901F5
:1002A00002C0EE0FFF1F4A95E2F76E2B01C0220F2E
:1002B0008A95EAF7622B692B67B9089590E0683058
:1002C00009F494C0E8F4623009F443C0643009F4DE
:1002D00061C023E1289FF001299FF00D1124E05F08
:1002E000FD4F228148B181E090E0BC0102C0660F61
:1002F000771F2A95E2F79B012095309524233CC077
:10030000603139F723E1289FF001299FF00D112476
:10031000E05FFD4F428128B181E090E0BC0102C066
:10032000660F771F4A95E2F7262B28B9438128B13B
:10033000BC0102C0660F771F4A95E2F7262B28B949
:10034000348128B101C0880F3A95EAF7822B88B929
:10035000089523E1289FF001299FF00D1124E05F0B
:10036000FD4F428128B181E090E0BC0102C0660FE0
:10037000771F4A95E2F7262B28B9238148B1BC01A3
:1003800002C0660F771F2A95E2F79B0120953095F2
:10039000242320C023E1289FF001299FF00D112480
:1003A000E05FFD4F228148B181E090E0BC0102C0D6
:1003B000660F771F2A95E2F79B012095309524233D
:1003C00028B9438128B1BC0102C0660F771F4A9546
:1003D000E2F7262B28B9348128B102C0880F991F73
:1003E0003A95E2F7809590958223B1CF23E1289F3B
:1003F000F001299FF00D1124E05FFD4F428128B1EB
:1004000081E090E0BC0102C0660F771F4A95E2F7D9
:10041000262BD6CF1F920F920FB60F9211240BB638
:100420000F92DF92EF92FF920F931F932F933F93C0
:100430004F935F936F937F938F939F93AF93BF93EC
:10044000CF93DF93EF93FF93C0E0D0E083E1D82E0A
:1004500001E010E0DC9EC001DD9E900D11249C01A6
:10046000205F3D4F7901F90124853585828593858B
:100470002817390708F096C08185882331F06185F7
:100480008C2F0E945E01F7011186C430D105C1F1A5
:1004900032B1DC9EF001DD9EF00D1124E05FFD4FD6
:1004A000818126854181B80102C0660F771F8A9538
:1004B000E2F7CB018095832301C0220F4A95EAF72A
:1004C000822B82B9208182B1A80102C0440F551F3E
:1004D0002A95E2F7842B82B9808122B1B80102C04B
:1004E000660F771F8A95E2F7CB018095909582235E
:1004F00082B9848595850196958784872196AACFB0
:1005000052B180915D0240916A0260915D0221E0EA
:1005100030E0F90102C0EE0FFF1F8A95E2F7CF012C
:100520008095852301C0440F6A95EAF7842B88B92A
:1005300040915C0288B1B90102C0660F771F4A95ED
:10054000E2F7862B88B990915C0288B102C0220F35
:10055000331F9A95E2F720953095822388B98091D0
:1005600068029091690201969093690280936802F3
:10057000FF91EF91DF91CF91BF91AF919F918F91BB
:100580007F916F915F914F913F912F911F910F91AB
:10059000FF90EF90DF900F900BBE0F900FBE0F906B
:1005A0001F901895C430D10571F0808122B1A80147
:1005B00002C0440F551F8A95E2F7CA0180959095B5
:1005C000822382B99BCF30915C0228B181E090E018
:1005D00002C0880F991F3A95E2F780959095822383
:1005E00088B9C6CF90930102809300022091000247
:1005F0003091010283E0220F331F8A95E1F740E03A
:1006000050E060E074E284EF90E00E9462042150C8
:10061000310930938900209388000895E0E1F2E0E9
:1006200020ED37E033872287158614868687089564
:100630008150990B53E1589FF001599FF00D1124FF
:10064000E05FFD4F7387628715861486468708959D
:100650008150990B33E1389FF001399FF00D11243F
:10066000E05FFD4F73876287158614864687218772
:1006700008954F925F926F927F928F929F92AF9266
:10068000BF92CF92DF92EF92FF920F931F93CF937F
:10069000DF9300D000D00F920F92CDB7DEB7698301
:1006A0007A838B839C8329013A01ED82FE820F833A
:1006B00018878A2C9B2C560129813A814B815C81B9
:1006C00024193509460957098C8D9D8DAE8DBF8D36
:1006D0007C018D01E818F9080A091B09C801B70156
:1006E0000E943E042D813E814F8158852419350991
:1006F000460957090E948404DA01C901880D991D31
:10070000AA1DBB1DBC01CD0128960FB6F894DEBF13
:100710000FBECDBFDF91CF911F910F91FF90EF9052
:10072000DF90CF90BF90AF909F908F907F906F9011
:100730005F904F9008950E9495000E94F00041E064
:1007400060E081E00E94050143E062E082E00E94F7
:10075000050145E064E083E00E94050147E066E0B2
:1007600084E00E94050146E067E085E00E94050103
:1007700088E790E00E94F202A8ECB0E081E0E0E9B6
:10078000F1E068EE73E042E350E024E630E0B0933D
:100790001B02A0931A0210921D0210921C02809359
:1007A0001E02F0932E02E0932D021092300210925E
:1007B0002F028093310270934102609340021092A5
:1007C0004302109242028093440250935402409399
:1007D00053021092560210925502809357023093A2
:1007E0006702209366021092690210926802809359
:1007F0006A029FEFCBE7D2E99150C040D040E1F7C9
:1008000000C00000B0931B02A0931A0210921D02B8
:1008100010921C0210921E02F0932E02E0932D0201
:100820001092300210922F02109231027093410206
:1008300060934002109243021092420210924402CE
:100840005093540240935302109256021092550254
:100850001092570230936702209366021092690249
:100860001092680210926A029FEFCBE7D2E9915092
:10087000C040D040E1F700C0000089CFDB018F937A
:100880009F930E94A304BF91AF91A29F800D911DE1
:10089000A39F900DB29F900D11240895AA1BBB1B1E
:1008A00051E107C0AA1FBB1FA617B70710F0A61B70
:1008B000B70B881F991F5A95A9F780959095BC0191
:1008C000CD010895A1E21A2EAA1BBB1BFD010DC08C
:1008D000AA1FBB1FEE1FFF1FA217B307E407F507F0
:1008E00020F0A21BB30BE40BF50B661F771F881FCC
:1008F000991F1A9469F760957095809590959B0162
:10090000AC01BD01CF010895052E97FB1EF40094A4
:100910000E949B0457FD07D00E94620407FC03D08D
:100920004EF40C949B0450954095309521953F4F83
:100930004F4F5F4F089590958095709561957F4FCB
:100940008F4F9F4F08950E94AE04A59F900DB49FB6
:10095000900DA49F800D911D11240895A29FB001B8
:10096000B39FC001A39F700D811D1124911DB29FE3
:0E097000700D811D1124911D0895F894FFCF84
:10097E00E803706F72746320737465707065720033
:00000001FF
