:100000000C9472000C9493000C9493000C94930045
:100010000C9493000C9493000C9493000C94930014
:100020000C9493000C9493000C9493000C94930004
:100030000C9493000C9493000C9493000C949300F4
:100040000C9493000C94AD020C9493000C949300C8
:100050000C9493000C9493000C9493000C949300D4
:100060000C9493000C9493000C9493000C949300C4
:100070000C9493000C9493000C9493000C949300B4
:100080000C9493000C9493000C9493000C949300A4
:100090000C9493000C9493000C9493000C94930094
:1000A0000C9493000C9493000C9493000C94930084
:1000B0000C9493000C9493000C9493000C94930074
:1000C0000C9493000C9493000C9493000C94930064
:1000D0000C9493000C9493000C9493000C94930054
:1000E0000C94930011241FBECFEFD1E2DEBFCDBF31
:1000F00000E00CBF12E0A0E0B2E0ECE3FBE000E0C7
:100100000BBF02C007900D92AE31B107D9F722E0C4
:10011000AEE1B2E001C01D92AD37B207E1F70E9437
:10012000F0040C949C050C9400004F925F926F9227
:100130007F928F929F92AF92BF92CF92DF92EF9277
:10014000FF920F931F93CF93DF9300D000D00F92B5
:100150000F92CDB7DEB769837A838B839C832901A5
:100160003A01ED82FE820F8318878A2C9B2C560160
:1001700029813A814B815C81241935094609570947
:100180008C8D9D8DAE8DBF8D7C018D01E818F90899
:100190000A091B09C801B7010E9416052D813E817D
:1001A0004F81588524193509460957090E945C0575
:1001B000DA01C901880D991DAA1DBB1DBC01CD0125
:1001C00028960FB6F894DEBF0FBECDBFDF91CF915A
:1001D0001F910F91FF90EF90DF90CF90BF90AF9065
:1001E0009F908F907F906F905F904F90089582E8DE
:1001F000809390008AE18093910080E29EE4909346
:100200009700809396006B9A0895CF93DF9300D068
:100210000F92CDB7DEB720ED37E0DC010E947B0501
:1002200024EB30E040E050E00E945C05DA01C901B7
:100230008053984FAF4FBF4F909399008093980091
:100240000F900F900F900F90DF91CF910895109223
:10025000C50087E68093C40088E18093C10086E0F2
:100260008093C20008959091C00095FFFCCF8093C9
:10027000C6000895CF93DF9360E177E20E942605E0
:10028000EC0180E3860F0E943301CE0168EE73E03B
:100290000E942605EC0180E3860F0E943301CE0107
:1002A00064E670E00E942605EC0180E3860F0E9460
:1002B0003301CE016AE070E00E942605C82F80E37A
:1002C000860F0E94330180E38C0FDF91CF910C9455
:1002D0003301CF93DF93EC018991811103C0DF914A
:1002E000CF9108950E943301F7CF8AE00E94330135
:1002F0008DE00C9433019C01CB01621773070CF461
:10030000C9010895E1E8F0E080818860808383EC92
:1003100099E09093890080938800AFE6B0E08C91DB
:1003200082608C9380818260808378940895CF93DB
:10033000DF93815023E1829FF0011124E25EFD4FA3
:10034000608341831586148691E096871386128612
:10035000C1E0D0E09E0102C0220F331F6A95E2F790
:1003600001C0CC0F4A95EAF7C22B8430A8F482E092
:1003700092E00E9469010E94750181B18C2B81B9C4
:100380003FEF81EE94E0315080409040E1F700C0B3
:100390000000DF91CF91089580E192E00E94690111
:1003A0000E94750187B18C2B87B9EACF20E030E03D
:1003B00093E1929FF001939FF00D1124E25EFD4FB7
:1003C0008283638344832F5F3F4F2530310589F754
:1003D00097B121E030E0F90102C0EE0FFF1F6A95EE
:1003E000E2F7BF01F90102C0EE0FFF1F4A95E2F7E5
:1003F0006E2B01C0220F8A95EAF7622B692B67B931
:10040000089590E0683009F494C0E8F4623009F48B
:1004100043C0643009F461C023E1289FF001299FA3
:10042000F00D1124E25EFD4F228148B181E090E0A1
:10043000BC0102C0660F771F2A95E2F79B01209549
:10044000309524233CC0603139F723E1289FF00127
:10045000299FF00D1124E25EFD4F428128B181E019
:1004600090E0BC0102C0660F771F4A95E2F7262B89
:1004700028B9438128B1BC0102C0660F771F4A9595
:10048000E2F7262B28B9348128B101C0880F3A95AC
:10049000EAF7822B88B9089523E1289FF001299F6C
:1004A000F00D1124E25EFD4F428128B181E090E021
:1004B000BC0102C0660F771F4A95E2F7262B28B9C8
:1004C000238148B1BC0102C0660F771F2A95E2F76D
:1004D0009B0120953095242320C023E1289FF00123
:1004E000299FF00D1124E25EFD4F228148B181E089
:1004F00090E0BC0102C0660F771F2A95E2F79B01CE
:1005000020953095242328B9438128B1BC0102C02D
:10051000660F771F4A95E2F7262B28B9348128B158
:1005200002C0880F991F3A95E2F780959095822333
:10053000B1CF23E1289FF001299FF00D1124E25E45
:10054000FD4F428128B181E090E0BC0102C0660FFE
:10055000771F4A95E2F7262BD6CF1F920F920FB640
:100560000F9211240BB60F92DF92EF92FF920F932E
:100570001F932F933F934F935F936F937F938F932B
:100580009F93AF93BF93CF93DF93EF93FF93C0E01D
:10059000D0E083E1D82E01E010E0DC9EC001DD9EBA
:1005A000900D11249C01225E3D4F7901F9012485B3
:1005B0003585828593852817390708F09EC0818587
:1005C000882331F061858C2F0E940102F70111868A
:1005D000C430D105E1F132B1DC9EF001DD9EF00DB9
:1005E0001124E25EFD4F818126854181B80102C060
:1005F000660F771F8A95E2F7CB018095832301C0B0
:10060000220F4A95EAF7822B82B9208182B1A80194
:1006100002C0440F551F2A95E2F7842B82B955E397
:100620005A95F1F70000808122B1B80102C0660F2F
:10063000771F8A95E2F7CB0180959095822382B946
:10064000848595850196958784872196A6CF58B194
:1006500080916B024091780260916B0221E030E062
:10066000F90102C0EE0FFF1F8A95E2F7CF018095D6
:10067000852301C0440F6A95EAF7842B88B940911D
:100680006A0288B1B90102C0660F771F4A95E2F786
:10069000862B88B975E37A95F1F7000090916A028C
:1006A00088B102C0220F331F9A95E2F7209530954A
:1006B000822388B980917602909177020196909377
:1006C000770280937602FF91EF91DF91CF91BF91F6
:1006D000AF919F918F917F916F915F914F913F91DA
:1006E0002F911F910F91FF90EF90DF900F900BBE15
:1006F0000F900FBE0F901F901895C430D10571F068
:10070000808122B1A80102C0440F551F8A95E2F7EB
:10071000CA0180959095822382B997CF30916A0261
:1007200028B181E090E002C0880F991F3A95E2F766
:1007300080959095822388B9C6CF909301028093CB
:100740000002209100023091010283E0220F331F4A
:100750008A95E1F740E050E060E074E284EF90E0D9
:100760000E943A0521503109309389002093880076
:100770000895EEE1F2E020ED37E033872287158619
:100780001486868708958150990B53E1589FF00194
:10079000599FF00D1124E25EFD4F73876287158625
:1007A0001486468708958150990B33E1389FF001F4
:1007B000399FF00D1124E25EFD4F73876287158625
:1007C00014864687218708958AB183608AB98BB1E0
:1007D00083608BB91092B90088E48093B8000895C3
:1007E00084EA8093BC008091BC0087FFFCCF089511
:1007F00084E98093BC008091BC0084FDFCCF089507
:100800008093BB0084E88093BC008091BC0087FF8C
:10081000FCCF0895882351F084EC8093BC00809134
:10082000BC0087FFFCCF8091BB00089584E8F5CF22
:100830000E94F00380E40E9400048FEF0E940004F5
:100840000C94F803CF930E94F00381E40E9400040B
:1008500080E00E940A04C82F0E94F8038C2FCF91D9
:100860000895CF930E94F0038CE60E9400048CE070
:100870000E9400040E94F8030E94F0038DE60E948B
:10088000000480E00E940A04C82F0E94F8038C2F05
:1008900090E0CF9108956F927F928F929F92BF9236
:1008A000CF92DF92EF92FF920F931F93CF93DF933C
:1008B000EEE1F2E080E9C82EDD24D394D386C2862F
:1008C00015861486BB24B394B68620E233E0368FB7
:1008D000258F10A2178EB1A231AB20AB13AA12AA9A
:1008E000B4AA91E6E92E92E0F92E84E690E0D701D1
:1008F00011969C938E9303E612E0D80111961C92F8
:100900001E9245E6842E42E0942ED401BC9254E718
:10091000652E52E0752ED30111969C938E93C6E7F7
:10092000D2E019821882A8E7B2E0BC924FEF5FE4F0
:1009300063EC415050406040E1F700C00000D386B6
:10094000C286158614861686368F258F10A2178EBE
:1009500011A231AB20AB13AA12AA14AAF7019183FA
:100960008083F80111821082F4011082F3019183D7
:100970008083198218821C92FFEF2FE443ECF15020
:1009800020404040E1F700C00000DF91CF911F916F
:100990000F91FF90EF90DF90CF90BF909F908F903E
:1009A0007F906F900895E8E9F0E080ED97E0918303
:1009B00080832FEF8BE792E9215080409040E1F750
:1009C00000C0000080EA9FE0918380832FEF8BE7D7
:1009D00092E9215080409040E1F700C00000089566
:1009E0003F9808980E9427010E94820146E067E034
:1009F00081E00E94970147E066E082E00E94970153
:100A000045E064E083E00E94970143E062E084E017
:100A10000E94970141E060E085E00E94970188EC28
:100A200090E00E949D030E944B04FDCFDB018F9359
:100A30009F930E948205BF91AF91A29F800D911D4F
:100A4000A39F900DB29F900D11240895AA1BBB1B6C
:100A500051E107C0AA1FBB1FA617B70710F0A61BBE
:100A6000B70B881F991F5A95A9F780959095BC01DF
:100A7000CD010895A1E21A2EAA1BBB1BFD010DC0DA
:100A8000AA1FBB1FEE1FFF1FA217B307E407F5073E
:100A900020F0A21BB30BE40BF50B661F771F881F1A
:100AA000991F1A9469F760957095809590959B01B0
:100AB000AC01BD01CF010895052E97FB1EF40094F3
:100AC0000E94730557FD07D00E943A0507FC03D02A
:100AD0004EF40C94730550954095309521953F4FF9
:100AE0004F4F5F4F089590958095709561957F4F1A
:100AF0008F4F9F4F08950E948D05B7FF0895821B69
:100B0000930B08950E948D05A59F900DB49F900DA5
:100B1000A49F800D911D11240895A29FB001B39F41
:100B2000C001A39F700D811D1124911DB29F700DF6
:0C0B3000811D1124911D0895F894FFCF41
:100B3C00E803706F72746120737465707065720075
:0E0B4C00706F72746320737465707065720050
:00000001FF
