:100000000C9472000C9493000C9493000C94930045
:100010000C9493000C9493000C9493000C94930014
:100020000C9493000C9493000C9493000C94930004
:100030000C9493000C9493000C9493000C949300F4
:100040000C9493000C94B0020C9493000C949300C5
:100050000C9493000C9493000C9493000C949300D4
:100060000C9493000C9493000C9493000C949300C4
:100070000C9493000C9493000C9493000C949300B4
:100080000C9493000C9493000C9493000C949300A4
:100090000C9493000C9493000C9493000C94930094
:1000A0000C9493000C9493000C9493000C94930084
:1000B0000C9493000C9493000C9493000C94930074
:1000C0000C9493000C9493000C9493000C94930064
:1000D0000C9493000C9493000C9493000C94930054
:1000E0000C94930011241FBECFEFD1E2DEBFCDBF31
:1000F00000E00CBF12E0A0E0B2E0E0E7F3E100E0D6
:100100000BBF02C007900D92A833B107D9F722E0C8
:10011000A8E3B2E001C01D92A13AB207E1F70E9444
:1001200056060C94B6090C9400004F925F926F92A1
:100130007F928F929F92AF92BF92CF92DF92EF9277
:10014000FF920F931F93CF93DF9300D000D00F92B5
:100150000F92CDB7DEB769837A838B839C832901A5
:100160003A01ED82FE820F8318878A2C9B2C560160
:1001700029813A814B815C81241935094609570947
:100180008C8D9D8DAE8DBF8D7C018D01E818F90899
:100190000A091B09C801B7010E9413072D813E817E
:1001A0004F81588524193509460957090E946D0762
:1001B000DA01C901880D991DAA1DBB1DBC01CD0125
:1001C00028960FB6F894DEBF0FBECDBFDF91CF915A
:1001D0001F910F91FF90EF90DF90CF90BF90AF9065
:1001E0009F908F907F906F905F904F90089582E8DE
:1001F000809390008AE18093910080E29EE4909346
:100200009700809396006B9A0895CF93DF9300D068
:100210000F92CDB7DEB720ED37E0DC010E948C07EE
:1002200024EB30E040E050E00E946D07DA01C901A4
:100230008053984FAF4FBF4F909399008093980091
:100240000F900F900F900F90DF91CF910895109223
:10025000C50087E68093C40088E18093C10086E0F2
:100260008093C20008959091C00095FFFCCF8093C9
:10027000C6000895CF93DF9360E177E20E943707CD
:10028000EC0180E3860F0E943301CE0168EE73E03B
:100290000E943707EC0180E3860F0E943301CE01F4
:1002A00064E670E00E943707EC0180E3860F0E944D
:1002B0003301CE016AE070E00E943707C82F80E367
:1002C000860F0E94330180E38C0FDF91CF910C9455
:1002D0003301CF93DF93EC018991811103C0DF914A
:1002E000CF9108950E943301F7CF8AE00E94330135
:1002F0008DE00C9433019C01CB01621773070CF461
:10030000C9010895E1E8F0E080818860808383EC92
:1003100099E09093890080938800AFE6B0E08C91DB
:1003200082608C9380818260808378940895CF93DB
:10033000DF93C62FD42FA901815025E1829FF001C0
:100340001124E85CFD4F6083D1831786168681E017
:10035000808B158614865387428782E092E00E9444
:1003600069010E94750121B181E090E0BC0101C0EA
:10037000660FCA95EAF701C0880FDA95EAF7682B8D
:10038000622B61B98FEF91EE24E0815090402040C4
:10039000E1F700C00000DF91CF91089520E030E048
:1003A00095E1929FF001939FF00D1124E85CFD4FC1
:1003B0008283638344832F5F3F4F2530310589F764
:1003C00097B121E030E0F90102C0EE0FFF1F6A95FE
:1003D000E2F7BF01F90102C0EE0FFF1F4A95E2F7F5
:1003E0006E2B01C0220F8A95EAF7622B692B67B941
:1003F0000895CF93DF93C82FD0E0683009F49CC0F4
:10040000E8F4623009F445C0643009F469C085E15C
:100410008C9FF0018D9FF00D1124E85CFD4F22812F
:1004200048B181E090E0BC0102C0660F771F2A95B9
:10043000E2F79B0120953095242344C0603139F7C1
:1004400085E18C9FF0018D9FF00D1124E85CFD4F3C
:10045000428128B181E090E0BC0102C0660F771FA5
:100460004A95E2F7262B28B9438128B1BC0102C086
:10047000660F771F4A95E2F7262B28B9348128B1F9
:1004800001C0880F3A95EAF7822B88B9DF91CF91A6
:10049000089580E192E00E9469010E94750185E162
:1004A0008C9FF0018D9FF00D1124E85CFD4F42817F
:1004B00028B181E090E0BC0102C0660F771F4A9529
:1004C000E2F7262B28B9238148B1BC0102C0660F90
:1004D000771F2A95E2F79B0120953095242320C0B1
:1004E00085E18C9FF0018D9FF00D1124E85CFD4F9C
:1004F000228148B181E090E0BC0102C0660F771F05
:100500002A95E2F79B0120953095242328B9438151
:1005100028B1BC0102C0660F771F4A95E2F7262B6F
:1005200028B9348128B102C0880F991F3A95E2F7A3
:10053000809590958223A9CF85E18C9FF0018D9FB6
:10054000F00D1124E85CFD4F428128B181E090E07C
:10055000BC0102C0660F771F4A95E2F7262BD6CF63
:100560001F920F920FB60F9211240BB60F92FF92AB
:100570000F931F932F933F934F935F936F937F93AB
:100580008F939F93AF93BF93CF93DF93EF93FF939B
:100590002091460230914702809144029091450299
:1005A0002817390708F0C5C080914102882339F027
:1005B0006091410280E00E94F9011092410258B11D
:1005C00080913902409148026091390221E030E087
:1005D000D90102C0AA0FBB1F8A95E2F7CD01809511
:1005E000852301C0440F6A95EAF7842B88B94091AE
:1005F000380288B1F90102C0EE0FFF1F4A95E2F7F9
:100600008E2B88B99091380288B102C0220F331F17
:100610009A95E2F720953095822388B98091460219
:100620009091470201969093470280934602C1E061
:10063000D0E085E1F82EFC9E8001FD9E100D112476
:10064000085C1D4FF8012685378584859585281718
:10065000390708F05FC08185882341F0D8011996D9
:100660006C918C2F0E94F901F801118652B185E13D
:100670008C9FF0018D9FF00D1124E85CFD4F81816E
:100680004089618121E030E0D90102C0AA0FBB1F7F
:100690008A95E2F7CD018095852301C0440F6A95C4
:1006A000EAF7842B82B9408182B1B90102C0660F9A
:1006B000771F4A95E2F7862B82B9908182B102C0FA
:1006C000220F331F9A95E2F720953095822382B945
:1006D000868597850196978786872196C530D105AF
:1006E00009F0A9CFFF91EF91DF91CF91BF91AF9129
:1006F0009F918F917F916F915F914F913F912F913A
:100700001F910F91FF900F900BBE0F900FBE0F9097
:100710001F901895D8013C9122B181E090E002C071
:10072000880F991F3A95E2F780959095822382B9B8
:10073000D4CF3091380228B181E090E002C0880F18
:10074000991F3A95E2F780959095822388B96FCFEB
:1007500090930102809300022091000230910102E7
:1007600083E0220F331F8A95E1F740E050E060E01C
:1007700074E284EF90E00E944B07215031093093DE
:100780008900209388000895E8E3F2E020ED37E047
:100790003587248717861686808B08958150990B9C
:1007A00025E1289FF001299FF00D1124E85CFD4F01
:1007B0008485958526853785821B0895CF92DF92A3
:1007C000EF92FF920F931F93CF93DF9300D000D04F
:1007D000CDB7DEB78150990B25E1289FA001299F55
:1007E000500D1124485C5D4F5E834D83DA011A96EB
:1007F000CD90DC90CB01A0E0B0E089839A83AB83FD
:10080000BC83BC01CD010E94BB087B018C01C601E9
:1008100068E671E00E942307CB01A0E0B0E0898385
:100820009A83AB83BC83BC01CD010E94BB089B01B2
:10083000AC01E982FA820B831C8369817A818B8106
:100840009C810E941A0820E030E040E05FE3698369
:100850007A838B839C8369817A818B819C810E94BE
:10086000AE0769837A838B839C8369817A818B81CC
:100870009C810E948C088B01AD81BE811A966D917E
:100880007C911B971A96ED91FC91C8010E94230759
:100890006E9FA0016F9F500D7E9F500D1124ED8122
:1008A000FE8182859385840F951FB801641B750BAB
:1008B0009C01201B310B6217730708F4CA010F90CB
:1008C0000F900F900F900F900F90DF91CF911F918D
:1008D0000F91FF90EF90DF90CF9008958150990B8A
:1008E00055E1589FF001599FF00D1124E85CFD4F30
:1008F0007587648717861686408B0895AF92BF92DE
:10090000CF92DF92EF92FF920F931F93CF93DF93DB
:1009100000D000D0CDB7DEB7182F8AE192E00E9458
:100920006901212F2150330B590125E12A9DC00176
:100930002B9D900D1124AC01485C5D4F7A01DA01CA
:100940001E968D919C910E943A010E9475018FEF35
:10095000810F0E94CE03E82FF0E0FA83E98386E25C
:1009600092E00E94690189819A810E943A010E9465
:100970007501D7011A96CD90DC9081E0E981FA816A
:100980001E161F060CF080E095E19A9D90019B9D3C
:10099000300D1124A901485C5D4F7A01DA015096AF
:1009A0008C9329813A81032E000C440B550B29832B
:1009B0003A834B835C83CA01B9010E94BD0820E0E1
:1009C00030E044EB53E469837A838B839C836981B1
:1009D0007A818B819C810E941A08B62E072F8E8304
:1009E0009D83C601A0E0B0E089839A83AB83BC837A
:1009F000BC01CD010E94BB089B01AC01B9820A83F6
:100A00009E819B83AD81AC8369817A818B819C813E
:100A10000E94490969837A838B839C8369817A81E7
:100A20008B819C810E948C08812F0E94DE03898328
:100A30009A8381E392E00E94690189819A810E94F0
:100A40003A010E94750129813A81F701358724878F
:100A50000F900F900F900F900F900F90DF91CF910C
:100A60001F910F91FF90EF90DF90CF90BF90AF90CC
:100A700008958150990B35E1389FF001399FF00DB1
:100A80001124E85CFD4F7587648717861686408BB6
:100A9000218708958AB183608AB98BB183608BB94D
:100AA0001092B90088E48093B800089584EA809396
:100AB000BC008091BC0087FFFCCF089584E980933F
:100AC000BC008091BC0084FDFCCF08958093BB00E6
:100AD00084E88093BC008091BC0087FFFCCF089520
:100AE000882351F084EC8093BC008091BC0087FF88
:100AF000FCCF8091BB00089584E8F5CF0E94560595
:100B000080E40E9466058FEF0E9466050C945E05E6
:100B1000CF930E94560581E40E94660580E00E9402
:100B20007005C82F0E945E058C2FCF910895CF933A
:100B30000E9456058CE60E9466058CE00E946605C0
:100B40000E945E050E9456058DE60E94660580E0C3
:100B50000E947005C82F0E945E058C2F90E0CF91F7
:100B600008956F927F928F929F92BF92CF92DF9261
:100B7000EF92FF920F931F93CF93DF93E8E3F2E09E
:100B800080E9C82EDD24D394D586C48617861686C0
:100B9000BB24B394B08A20E233E032A321A314A291
:100BA00013A2B5A237AB26AB11AE10AEB2AE93E82E
:100BB000E92E92E0F92E82E390E0D70111969C9302
:100BC0008E9305E812E0D80111961C921E9247E818
:100BD000842E42E0942ED401BC9258E9652E52E056
:100BE000752ED30111969C938E93CAE9D2E0198297
:100BF0001882ACE9B2E0BC924FEF5FE463EC415085
:100C000050406040E1F700C00000D586C4861786DA
:100C10001686108A32A321A314A213A215A237AB01
:100C200026AB11AE10AE12AEF70191838083F801AE
:100C300011821082F4011082F30191838083198262
:100C400018821C92FFEF2FE443ECF150204040400B
:100C5000E1F700C00000DF91CF911F910F91FF904D
:100C6000EF90DF90CF90BF909F908F907F906F908C
:100C70000895E8E9F0E080ED97E0918380832FEF1D
:100C80008BE792E9215080409040E1F700C00000DE
:100C900080EA9FE0918380832FEF8BE792E92150D8
:100CA00080409040E1F700C0000008950E942701B5
:100CB0000E9482010E94F70028ED37E246E067E0DB
:100CC00081E00E94970128ED37E247E066E082E08C
:100CD0000E94970128ED3EE045E064E083E00E9439
:100CE000970128EC30E043E062E084E00E94970145
:100CF00028EC30E041E060E085E00E94970143E0AD
:100D000064E085E00E94CE0184EF91E00E94A80398
:100D100081B1806C81B987B1806C87B980E991E03D
:100D2000E5EFF9E064E670E021E044E038E0F32E1E
:100D3000C0EDD7E0A0EABFE0909345028093440263
:100D4000109247021092460210924802F0936F02EE
:100D5000E0936E0210927102109270021092720271
:100D6000709384026093830210928602109285022F
:100D70002093870240938002909399028093980277
:100D800010929B0210929A0220939C02F09295027C
:100D9000D0939900C09398000FEF13E234EF50E026
:100DA0000150104030405040D9F700C000009093EF
:100DB000450280934402109247021092460220930B
:100DC0004802F0936F02E0936E021092710210924B
:100DD00070022093720270938402609383021092D7
:100DE00086021092850210928702409380029093AF
:100DF00099028093980210929B0210929A0210928C
:100E00009C02F0929502B0939900A09398000FEF86
:100E100013E234EF50E00150104030405040D9F719
:100E200000C0000089CFDB018F939F930E9493073E
:100E3000BF91AF91A29F800D911DA39F900DB29F76
:100E4000900D11240895AA1BBB1B51E107C0AA1FD6
:100E5000BB1FA617B70710F0A61BB70B881F991F5B
:100E60005A95A9F780959095BC01CD01089597FBFF
:100E7000072E16F4009407D077FD09D00E942307AF
:100E800007FC05D03EF4909581959F4F089570958D
:100E900061957F4F0895A1E21A2EAA1BBB1BFD018D
:100EA0000DC0AA1FBB1FEE1FFF1FA217B307E40749
:100EB000F50720F0A21BB30BE40BF50B661F771FA1
:100EC000881F991F1A9469F7609570958095909581
:100ED0009B01AC01BD01CF010895052E97FB1EF4C7
:100EE00000940E94840757FD07D00E944B0707FC1F
:100EF00003D04EF40C94840750954095309521957D
:100F00003F4F4F4F5F4F0895909580957095619535
:100F10007F4F8F4F9F4F08950E949E07B7FF089500
:100F2000821B930B08950E949E07A59F900DB49F6E
:100F3000900DA49F800D911D11240895A29FB001D2
:100F4000B39FC001A39F700D811D1124911DB29FFD
:100F5000700D811D1124911D08955058BB27AA279B
:100F60000E94C5070C940F090E94010938F00E94E5
:100F7000080920F039F49F3F19F426F40C94FE0878
:100F80000EF4E095E7FB0C94F808E92F0E94200985
:100F900058F3BA17620773078407950720F079F4AE
:100FA000A6F50C9442090EF4E0950B2EBA2FA02D55
:100FB0000B01B90190010C01CA01A0011124FF2706
:100FC000591B99F0593F50F4503E68F11A16F04001
:100FD000A22F232F342F4427585FF3CF4695379500
:100FE0002795A795F0405395C9F77EF41F16BA0BC5
:100FF000620B730B840BBAF09150A1F0FF0FBB1F73
:10100000661F771F881FC2F70EC0BA0F621F731FBB
:10101000841F48F4879577956795B795F7959E3F18
:1010200008F0B0CF9395880F08F09927EE0F9795A9
:10103000879508950E942E080C940F090E940809B4
:1010400058F00E94010940F029F45F3F29F00C9408
:10105000F80851110C9443090C94FE080E942009D1
:1010600068F39923B1F3552391F3951B550BBB27D7
:10107000AA2762177307840738F09F5F5F4F220F1C
:10108000331F441FAA1FA9F335D00E2E3AF0E0E813
:1010900032D091505040E695001CCAF72BD0FE2F5D
:1010A00029D0660F771F881FBB1F261737074807F1
:1010B000AB07B0E809F0BB0B802DBF01FF279358A9
:1010C0005F4F3AF09E3F510578F00C94F8080C946D
:1010D00043095F3FE4F3983ED4F38695779567958F
:1010E000B795F7959F5FC9F7880F911D96958795DE
:1010F00097F90895E1E0660F771F881FBB1F6217FD
:1011000073078407BA0720F0621B730B840BBA0BBA
:10111000EE1F88F7E09508950E94280988F09F57F0
:1011200098F0B92F9927B751B0F0E1F0660F771F0B
:10113000881F991F1AF0BA95C9F714C0B13091F001
:101140000E944209B1E008950C944209672F782F5C
:101150008827B85F39F0B93FCCF3869577956795C6
:10116000B395D9F73EF490958095709561957F4F32
:101170008F4F9F4F0895E89409C097FB3EF49095D8
:101180008095709561957F4F8F4F9F4F9923A9F060
:10119000F92F96E9BB279395F695879577956795EF
:1011A000B795F111F8CFFAF4BB0F11F460FF1BC033
:1011B0006F5F7F4F8F4F9F4F16C0882311F096E9C6
:1011C00011C0772321F09EE8872F762F05C0662374
:1011D00071F096E8862F70E060E02AF09A95660F2D
:1011E000771F881FDAF7880F9695879597F90895E6
:1011F00097F99F6780E870E060E008959FEF80ECCA
:10120000089500240A94161617061806090608956C
:1012100000240A9412161306140605060895092ED2
:101220000394000C11F4882352F0BB0F40F4BF2B41
:1012300011F460FF04C06F5F7F4F8F4F9F4F089581
:1012400057FD9058440F551F59F05F3F71F0479577
:10125000880F97FB991F61F09F3F79F0879508955C
:10126000121613061406551FF2CF4695F1DF08C07B
:10127000161617061806991FF1CF86957105610598
:1012800008940895E894BB2766277727CB0197F940
:1012900008950E945C090C940F090E94010938F01E
:1012A0000E94080920F0952311F00C94F8080C9482
:1012B000FE0811240C9443090E94200970F3959FA5
:1012C000C1F3950F50E0551F629FF001729FBB273D
:1012D000F00DB11D639FAA27F00DB11DAA1F649FD9
:1012E0006627B00DA11D661F829F2227B00DA11D8C
:1012F000621F739FB00DA11D621F839FA00D611D12
:10130000221F749F3327A00D611D231F849F600D32
:10131000211D822F762F6A2F11249F5750409AF05B
:10132000F1F088234AF0EE0FFF1FBB1F661F771FE7
:10133000881F91505040A9F79E3F510580F00C94B2
:10134000F8080C9443095F3FE4F3983ED4F3869584
:1013500077956795B795F795E7959F5FC1F7FE2B52
:10136000880F911D9695879597F90895F894FFCF6A
:10137000E803706F72746120737465707065720039
:101380006D6963726F737465700043757272656E18
:1013900074506F733A0064697374616E6365546F5F
:0813A000006D6F7665546F00CB
:00000001FF
